S02400004652454552544F535F5045524950484552414C5F434F4E54524F4C312E737265639A
S214080000E07307206D340800693408006934080076
S21408001069340800693408006934080000000000E4
S214080020000000000000000000000000A1390800E1
S2140800306934080000000000413A0800853A0800C4
S214080040693408006934080069340800693408000F
S21408005069340800693408006934080069340800FF
S214080060010808006934080000000000E91E0800BE
S214080070FD1E0800111F0800251F080000000000CC
S214080080000000005D0F08006D0F08007D0F0800D7
S2140800908D0F080069340800F506080005070800F3
S2140800A06934080000000000693408006934080054
S2140800B0693408006934080069340800693408009F
S2140800C0693408006934080069340800693408008F
S2140800D0693408006934080069340800693408007F
S2140800E011260800693408006934080069340800D5
S2140800F06934080010B5054C237833B9044B13B19E
S2140801000448AFF300800123237010BDEC060720D7
S21408011000000000BC6208000C4B43B10C4810B548
S2140801200C49AFF300800C48036823B910BD0A4891
S214080130036833B97047094B002BF7D0BDE8104069
S2140801401847064B002BF5D0184700BF00000000E4
S214080150BC620800F0060720BC6208000000000029
S21408016010B50E480E4B98473E2100200D4B984779
S2140801700D4CA0470028FCD00C4B98470C4A0D4B5A
S2140801809A620D4CA0470028FCD010200B4B9847CD
S2140801900B4B98470148024B984710BD00BD010518
S2140801A0A50007209D1F0800F11F08000120080071
S2140801B0013F0D2000060E4011200800391F0800D8
S2140801C00535080010B40C4669B103689A420CD08D
S2140801D0034600200130844203D053F8101F914292
S2140801E0F8D110BC70470846FBE70020F9E7002A5C
S2140801F010DD0B7883420FD04B1C11448B420FD076
S21408020010B413F8014B844208D08B42F9D1002071
S21408021010BC704700207047012070470120F7E7A0
S21408022000207047F8B504460D46164610F0010F34
S2140802301ED114F0040F35D100232B6014F0080FDC
S2140802404DD0002E4BD0032200210120254B984785
S214080250306000283ED000231A461946224CA04794
S2140802603368002B36D000213068204B9847F8BDFD
S2140802700322002101201B4B9847686068B10023C1
S2140802801A461946184FB8476B6833B100231A4602
S21408029019466868144FB847CBE771211448154BC0
S2140802A09847F3E70322002101200E4B9847286061
S2140802B058B100231A4619460B4FB8472B6823B186
S2140802C000212868094B9847B8E77D210848094B5C
S2140802D09847F5E790210648064B9847C3E700235A
S2140802E03360F8BD993E0800313F08001144080005
S2140802F0705E08006158080038B505460C460F2998
S21408030015D8092C18D9002D1BDB690905F01F0222
S214080310012393400E4A01F1600042F82030240180
S214080320E4B2501980F8004342F8213038BDA621BF
S2140803300848094B9847E4E7A8210648064B98471B
S214080340E1E705F00F002401E4B2044B1C5438BD65
S21408035000E100E0705E08006158080014ED00E057
S2140803602DE9F041064690461F4685698D421FD006
S2140803708D4232BF4C1B4468641BBC4207D31ED058
S21408038000231A4619463069114CA0473C462246B7
S214080390B16940460F4B9847254473689D4210D272
S2140803A00D4B9847B5610D4B98472046BDE8F08140
S2140803B0C36813B94468641BDFE70024DDE73C46DE
S2140803C0E5E7054B98473368B361044B9847ECE775
S2140803D0313F0800B15A0800C53908000D3A080030
S2140803E04368BBB130B583B00D46044668460C4B2F
S2140803F09847296860680B4B984768B1294668464D
S214080400094B9847012802D0002003B030BD0020D1
S2140804102860FAE7002070476FF00200F5E700BF93
S214080420454F0800114408009D4F0800F0B583B0FA
S2140804300F4616461C46089B9DF82450B3B1036029
S21408044000211846134B98470097019695B9022144
S2140804502046114B98470022694620460F4B98477E
S214080460012120460E4B984703B0F0BD0368002BC9
S214080470EAD0E5E74FF400712046074B984700227C
S21408048069462046074B98474FF480712046044B30
S2140804909847E9E711440800191D0800F51C0800EC
S2140804A00D1D0800DD1C080009B100207047006813
S2140804B048B108B51146054B984701280CBF0020DF
S2140804C06FF0020008BD0020704700BF1144080006
S2140804D02DE9F04182B007460023019303017B4AC9
S2140804E0D55828467A4B984706462846794B984763
S2140804F0064016F4005F35D14FF0000816F4805F0A
S2140805007CD116F4507F02D1B8F1000F1DD06F4B86
S21408051003EB071340F2022158686F4B984716F40E
S214080520807F04BF02232B604FF4005128466B4C93
S214080530A0474FF480512846A047694B03EBC707EE
S214080540786810B101A9674B9847019B3BB14FF0FB
S2140805508052654B1A60BFF34F8FBFF36F8F02B0A0
S214080560BDE8F081594B03EB07134FF40071586848
S214080570594B98474FF400512846584B9847002443
S2140805802B6A13F0040F06D10134B4F1FF3FF7D1FC
S2140805904FF0010801E04FF0000802232B60534B90
S2140805A003EBC70253F837305268134413F8013C7C
S2140805B06B632B6A13F0010F0CD10134B4F1FF3FC3
S2140805C0F7D1474B03EBC703586800287AD04FF09B
S2140805D0010804E0424B03EBC703586810B101A9B1
S2140805E0404B9847B4F1FF3F88D03D4B53F837004F
S2140805F0002883D001A93B4B98477FE7334B03EB92
S214080600071302215868344B98474FF48051284600
S214080610324B984700242B6A13F0020F03D101349B
S214080620B4F1FF3FF7D102232B60304B53F8372045
S21408063003EBC7035968286B531803F8020C2B6A98
S21408064013F0020F1BD10134B4F1FF3FF7D1244B4E
S21408065003EBC703586800283FF453AF01A9214BA2
S2140806609847B4F1FF3F3FF44CAF214B53F837009F
S21408067000283FF446AF01A91A4B984741E7B4F162
S214080680FF3F0ED02B6B0A4402F8013C00242B6A6D
S21408069013F0010F0FD10134B4F1FF3FF7D14FF03B
S2140806A001080F4B03EBC703586800283FF429AF2F
S2140806B04FF0FF34D2E70A4B03EBC703586800280D
S2140806C0CCD1CEE74FF0010818E700BFB85E0800A7
S2140806D0572008005B200800191D08005120080054
S2140806E028070720D941080004ED00E0180707206E
S2140806F00807072008B50020014B984708BD00BF2B
S214080700D104080008B50120014B984708BD00BF72
S214080710D1040800F8B50446C0EBC002304B03EB22
S21408072082039A699B689A4220D09A4238D9C0EBCD
S214080730C0012B4800EB8101D21ACA60C4EBC40280
S214080740274901EB8202D1680B445268934218D8B5
S214080750C4EBC403224A02EB8303DB684BBB2401C9
S2140807600921204B1859204B9847F8BD79B9C0EB9A
S214080770C0021B4901EB82020021D16052689342F5
S214080780EDD94FF413711948194B9847E0E7C0EBB9
S214080790C002134901EB82025168C91AD160CDE73D
S2140807A0C0EBC0020E4901EB82025168C91AD1603B
S2140807B0C4E70C4E250173195F68C4EBC40402EB4A
S2140807C084010022083138460A4B984701213846EA
S2140807D0094B984709217059084B9847F8BD00BF40
S2140807E038070720D85E080063200800E85E08007F
S2140807F061580800F51C08000D1D08005F20080059
S21408080030B583B000230193374D2846374B9847B9
S21408081004462846364B9847044014F0100F34D147
S21408082014F0080F1DD0334B9B69002B3FD0314B7B
S2140808309B69012B41D02F4A9368D1680B4493607B
S2140808405268934202D32B4B1A689A6000210846D6
S214080850294B9847274B1869002834D001A9274BFD
S2140808609847002C31D1234B186910B101A9234BA6
S2140808709847019B3BB14FF08052214B1A60BFF35B
S2140808804F8FBFF36F8F03B030BD102128461D4B26
S21408089098471D4B586810B101A9184B98471A4B32
S2140808A018680028BCD001A9144B9847B8E74FF43D
S2140808B024711648164B9847B9E740F29221134818
S2140808C0134B9847B7E7002CD3D014F0E00FD0D0DE
S2140808D00548104B98470C4B58680028C9D001A902
S2140808E0064B9847C5E700BF00080E406B20080077
S2140808F0672008003807072015070800D9410800B0
S21408090004ED00E06320080054070720E85E0800AE
S214080910615808006F200800F8B50446C0EBC0020E
S214080920314B03EB82039A699B689A4221D09A421C
S21408093039D9C0EBC0012C4800EB8101D21ACA6035
S214080940C4EBC402284901EB8202D1680B44526802
S214080950934219D8C4EBC403234A02EB8303DB682B
S21408096053BB24014FF48471204B1859204B9847E9
S214080970F8BD79B9C0EBC0021B4901EB8202002121
S214080980D16052689342ECD940F2912119481A4B2B
S2140809909847DFE7C0EBC002134901EB82025168B3
S2140809A0C91AD160CCE7C0EBC0020F4901EB82023E
S2140809B05168C91AD160C3E70C4E250173195F68E0
S2140809C0C4EBC40402EB84010022083138460B4B02
S2140809D09847012138460A4B98474FF48471705956
S2140809E0084B9847F8BD00BF5C070720285F08003B
S2140809F04D340800685F080061580800F51C0800B8
S214080A000D1D08004934080070B582B0044600235E
S214080A1001930301474AD6583046474B9847054640
S214080A203046464B9847054015F0100F45D115F04F
S214080A30080F30D0C4EBC403414A02EB83039B691A
S214080A40002B4FD0C4EBC4033D4A02EB83039B69DB
S214080A50012B4DD0C4EBC403394A02EB83039A68D2
S214080A60D9680A449A605B689A4206D3344AC4EB4B
S214080A70C4039B00D118D3588B6000212046314B05
S214080A809847C4EBC4032E4A02EB8303186910B1D7
S214080A9001A92D4B984715F4807F2FD115F0E00F4C
S214080AA03BD1019B3BB14FF08052284B1A60BFF3F5
S214080AB04F8FBFF36F8F02B070BD10213046244BA6
S214080AC09847244B03EBC403586810B101A91E4B82
S214080AD09847204B53F834000028A8D001A91A4B91
S214080AE09847A4E740F2D5211B481C4B9847A9E72E
S214080AF040F2D7211848194B9847ABE73046184BB1
S214080B009847C4EBC4030E4A02EB8303186900280F
S214080B10C4D001A90C4B9847C0E73046114B9847FC
S214080B200C4B03EBC40460680028BAD001A9064B36
S214080B309847B6E7285F080055340800513408007F
S214080B405C07072019090800D941080004ED00E0F1
S214080B504D340800CC070720685F08006158080075
S214080B6061340800593408002DE9F04782B005467C
S214080B708846164602AF002307F8043D02460421BD
S214080B805C485D4B9847044601223946307B5B4BF0
S214080B909847032C00F3A980002800F0A880C4EB2F
S214080BA0C403574A02EB83039B691BB1DD215548F2
S214080BB0554B98472846554B98472846544B9847D0
S214080BC04C4F07EB0417D7F8049040F2022148462A
S214080BD0504B9847B868504B9847337B002B64D0E7
S214080BE04FF0FF3128464D4B984700224C4901EB01
S214080BF0C401707B4B4B98473368002B6DD000219F
S214080C004FF0FF30484B9847C4EBC4033C4A02EB0E
S214080C108303186100284ED0D8F80010434BA3FB76
S214080C20013189092846424B98472846414B984740
S214080C30DFF8CCA0C4EBC4084FEA88080AEB08071C
S214080C403368BB607368FB60394600220831484643
S214080C50394B98473368BB61BA684AF80820736806
S214080C6013447B60737B13F0020F2AD14FF4847110
S214080C702846324B984701214846314B98471D4F26
S214080C8024013B19B16893F90C002E4B9847E021D4
S214080C9038592A4B984728462B4B984728462B4BBB
S214080CA09847284602B0BDE8F087294A41462846B4
S214080CB0284B984794E74FF48D711248124B984783
S214080CC0AAE70120244B984778610028CED14FF434
S214080CD0A0710C480C4B9847C8E7C4EBC403084AF5
S214080CE002EB830301229A61C9E70020DAE70020B5
S214080CF0D8E700BF285F0800C5010800EF01080014
S214080D005C070720685F080061580800333408004D
S214080D103F340800191D0800212008004D3408003B
S214080D20CC07072025020800ED3E08001F85EB517A
S214080D304534080061340800F51C080049340800EA
S214080D400D1D0800F90208002D3408003934080083
S214080D5000BD0105D9330800DD4008002DE9F04143
S214080D6084B005460E4617460393024604211748E4
S214080D70174B9847032826DC8046164C04EBC0041D
S214080D8003A92046144B9847034618B1184604B0E2
S214080D90BDE8F0810D4B03EB0818D8F804300122A3
S214080DA001920A9A00923A46314620460B4EB047C0
S214080DB0102128460A4B9847039A0A992046094B59
S214080DC098470346E2E76FF00703DFE7285F080067
S214080DD0C5010800CC070720E10308002D04080019
S214080DE049340800A90408002DE9F04F87B00F46DB
S214080DF016460393024604214B484C4B9847044634
S214080E00C0EBC0024A4B03EB82039B69ABB1C4EB51
S214080E10C403474A02EB83039B69012B13D0032CB8
S214080E207CDC4349C4EBC4039B00CA185268CB5801
S214080E30D31AB3420DD2002571E040F216213D4880
S214080E403D4B9847E3E74FF406713A483A4B9847C4
S214080E50E5E704A8394B9847C4EBC403344A02EBC9
S214080E608303586960B10399354B9847012801D028
S214080E70002554E003A904A8324B9847012813D04C
S214080E800294C4EBC4032A4A02EB830301930025A9
S214080E90C4EBC40802EB8808DFF8A4B0224B03EBC7
S214080EA00419DFF8B4A014E0C4EBC404204800EB2F
S214080EB0840000231A4619464069234CA047D7E702
S214080EC0224B9847AE421CD903A904A81D4B984745
S214080ED0B8B90399D8F81000D847D9F80430196873
S214080EE0731B7A190198D0472D18EBD0184B9847E2
S214080EF0D8F80C30002BE3D101210298154B9847FF
S214080F00DEE7C4EBC4040A4B03EB8404606930B123
S214080F1000231A4619460C4CA04700E00025284630
S214080F2007B0BDE8F08F00BF285F0800C5010800BD
S214080F305C070720685F080061580800454F0800EE
S214080F40114408009D4F0800313F08000D3A08007C
S214080F50C5390800190908006103080008B500200B
S214080F60014B984708BD00BF090A080008B50120CC
S214080F70014B984708BD00BF090A080008B50220BB
S214080F80014B984708BD00BF090A080008B50320AA
S214080F90014B984708BD00BF090A0800024A1378A3
S214080FA0013BDBB213707047F70707200020704735
S214080FB0002070471D4B1B7813F0800F05D103F0F7
S214080FC06003202B18D00020704703F06003202B06
S214080FD001D000207047154B5B78212B24D1134B8A
S214080FE0DB88072B01D000207047104B104A9A6008
S214080FF007229A81012070470C4B5878202804D085
S214081000222814BF002001207047084BDB88072BD6
S21408101001D000207047054B064A1A61044A9A60B8
S21408102007229A81012070470020704764530720E2
S214081030F0070720391008007047000008B50020A0
S214081040104B1870104B1880104BA1221A702022D3
S2140810505A70588098800222DA8018810C4B4FF418
S214081060E1321A601871587108229A71094B98472C
S214081070024620B103490B780133DBB20B701046E9
S21408108008BD00BFF70707200C0C07202410072010
S214081090F007072019380800444B1B7803B170473F
S2140810A070B584B0424B9847002842D0414B1C8804
S2140810B0414B9847844277D0EFF31083B3FA83F313
S2140810C05B09039372B6BFF35F8F00223B4B1A701F
S2140810D0039D3B4B1C78E4B23A4B33F81430002B94
S2140810E02ED00022384B1A80384B1B78002B43D161
S2140810F0B4FA84F35B09324A137001222B4B1A7038
S21408110025B12E4B1A70BFF35F8F62B626462D4B5D
S21408111033F81430B3F5007F14BF0125002534D00A
S214081120234B984700282BD0234B9847214B1880F1
S2140811302EE0204B1C88264B98478442BCD133E0CF
S214081140214A138801331380194B984718B91E4B48
S2140811501B88632B08D9164B98470028C1D01A4B12
S2140811601B88B3F5487FBCD2F5B10122134B1A7021
S214081170BFF35F8F62B617E0B4FA84F46409BCE77D
S214081180134B98470B4B188002E00022094B1A8035
S2140811900C4B33F816300F4A00920F4A02EB4422E3
S2140811A0294681200D4CA04704B070BD20100720AA
S2140811B03D2C08001C100720992C08006E020720FA
S2140811C01810072014100720EC070720100C07201B
S2140811D0892C0800E1110800140C0720012F0800CC
S2140811E000B1704708B5074B1B78B3FA83F35B0961
S2140811F0054A22F81300054B1870054B1870054B66
S214081200984708BD1810072014100720100C072050
S214081210201007209910080008B50020014B9847B1
S21408122008BD00BF9910080008B5064A1378013BA8
S214081230DBB213701078044B98470022034B1A70E1
S21408124008BD00BFF807072079380800EE07072012
S21408125082B0EFF31083B3FA83F35B09019372B697
S214081260BFF35F8F00220B4B1A7001990A4B188840
S21408127083B20A4A1278D2B2094830F8120080B20D
S214081280C01A29B10122034B1A70BFF35F8F62B6EA
S21408129002B070476E020720040C0720000C0720D7
S2140812A0FC0B072008B5034B9847003018BF0120F1
S2140812B008BD00BF5112080010B584B0EFF31083C4
S2140812C0B3FA83F35B09039372B6BFF35F8F00220A
S2140812D0214B1A70039B214A1478214A12784AB97E
S2140812E0E4B2204A118889B21F4A32F8142092B212
S2140812F091420AD2002B2DD00122174B1A70BFF349
S2140813005F8F62B6002004B010BD0021154A118018
S214081310B4FA84F2520911490A700121104A117070
S21408132023B10D4B1970BFF35F8F62B600200F4BC9
S214081330984758B90E4B00934FF400730D4A02EBCA
S2140813404422012102200C4CA047DCE700200B4B6E
S2140813509847EFE70020D6E76E020720000C072024
S214081360080C0720040C0720FC0B0720A512080011
S21408137015140800FC070720012F08002538080068
S21408138010B50024164B1C70164B1C70164B1C70A0
S214081390164B1C70164B1C805C80164B1C80204617
S2140813A0154B9847154B1C70154B1C70154B1C801D
S2140813B05C80154B1C802046144B9847014640B16C
S2140813C0074A13780133DBB213701378DBB2012BAC
S2140813D001D0084610BD01220D4B1A70F9E700BF70
S2140813E0F807072020100720100C072018100720E1
S2140813F0141007201C10072099100800080C072056
S214081400000C0720FC0B0720040C0720B912080064
S214081410EE070720F0B910B582B010460E4B1C78C0
S214081420B4FA84F4640951B189B20C4B23F8141049
S21408143000200B4B18700B4B984702B010BD0A4B98
S21408144000934FF40073094A02EB44220121084C2A
S214081450A047F2E7704700BF000C0720FC0B0720E8
S214081460080C0720B912080015140800FC07072006
S214081470012F0800104B1B681A6853881A44037813
S2140814801844904211D24378042B10D08B4209D0CE
S21408149003781844904206D24378042B09D08B422E
S2140814A0F6D107E0704700207047002070470020FC
S2140814B070470020704700BF3C10072008B5034B54
S2140814C0987800F07F00024B984708BD64530720C1
S2140814D0512C0800194B1B784BB3194B1B681B681B
S2140814E01A79824225D970B4164A13605C881C445F
S2140814F0A34220D20025012607E0124A13600FE017
S2140815001A7813443546A3420CD25A78042AF7D1DF
S2140815109A788242F4D1DA788A42F1D1002DECD159
S214081520012002E0074A1360002070BC70470020C4
S2140815307047002070470020F7E700BF38100720E4
S2140815403C100720401007202DE9F84304460021E8
S214081550134B9847804610B94046BDE8F883114BB0
S2140815601B685B6853F82490D9F80C3098470146F6
S21408157020460B4B984780460028EDD00A4B1C683F
S21408158005260A4D0A4F31462046A847044610B19C
S2140815908078B847F7E7D9F804309847DCE700BF03
S2140815A0D51408003C1007204010072075140800C2
S2140815B0B52C08002DE9F0418046104B98470346A5
S2140815C0C8B10F4B1C6805260E4D0F4F31462046F6
S2140815D0A847044638B18288C1788078B847034659
S2140815E00028F3D107E0094B1B685B6853F82830DE
S2140815F01B68984703461846BDE8F081D5140800CE
S2140816004010072075140800FD2F08003C1007201E
S21408161070B50D4B1B7883B10C4B1B681B681B7988
S2140816205BB100240A4E094D2046B0470134E4B2A7
S2140816302B681B681B79A342F6D80022024B1A7047
S2140816400122044B1A8070BD381007203C10072072
S214081650491508002E10072038B50D4B1B78B3B176
S2140816600C4B1B681A6812798AB10024094D06E0EB
S2140816700134E4B22B681A681279A24207D95B686B
S21408168053F824301B69002BF2D09847F0E738BD92
S214081690381007203C100720F8B5944B00229A8192
S2140816A01A615A611B7813F0800F14D113F0600F7B
S2140816B000F03C818D4B1B7803F01F03012B00F0D4
S2140816C008828A4B1B7803F01F03022B00F08682E1
S2140816D000231846F8BD854AD288002A00F0A7825B
S2140816E013F0600FE6D113F01F0307D17F4949783E
S2140816F0062916D0082900F0BA8059B1012B00F047
S214081700BE80022BD6D1794B5B78002B00F0E080A8
S2140817100023D0E1022AD4D102217548754B984798
S21408172021E1724B5A88D4B2130A013B0E2B00F201
S2140817301182DFE813F00F001E0079000F020F0277
S2140817403F004D000F020F020F020F020F020F029A
S2140817500F027000684B984728B9684B986801785C
S214081760644B98472BE0654B18680178614B98479F
S21408177025E0614B984780B1604B9B685B7CA34231
S21408178098D95E4B1B6953F834004188594B9847E3
S214081790564B9B6802225A7011E0584B1B685B7CBC
S2140817A0A34287D9554B5B6853F834004188514BA0
S2140817B09847EDE7514BD86801784E4B98474B4B06
S2140817C0DA889B89934240F2CE80484B9A81CAE0D9
S2140817D0494B984788B9494B9B685B7CA3427FF680
S2140817E069AF464B1B6953F834004188414B98470C
S2140817F03E4B9B6807225A70E1E7404B1B685B7CB0
S214081800A3427FF657AF3D4B5B6853F834004188D8
S214081810384B9847ECE7394B586900283FF451AFE6
S2140818204188344B9847CAE7D2B2012A1CD0B2B1D5
S214081830022A7FF43FAF324A1121013A3148002389
S21408184012F8014F20F8024B0133DBB28B42F7D374
S214081850490002312C480170264B9847AFE704210F
S2140818602A48244B9847AAE7294A0521E5E7012A8A
S2140818707FF427AF012127481E4B984773E01B4982
S21408188049780A297FF43DAF012A40F02281214B8E
S2140818901B78002B00F01D81144B1C791E4B1D680D
S2140818A02B681B79A34240F21481002120461B4B6B
S2140818B0984700283FF4FEAE6B6853F82430DB6880
S2140818C09847174B1870012118460A4B98474AE064
S2140818D0022A7FF4F6AE054B1879124B9847124B3E
S2140818E0188002211846034B98473CE064530720AB
S2140818F02E100720A92C08003D2C080054010720AC
S2140819005C0207202E0207202C0207205002072020
S21408191054020720381007203C100720D51408006A
S21408192034100720112D08003010072013F01F036D
S21408193040F0B5808A4A5278013A082A00F2AF8009
S214081940DFE812F01300AD002300AD000900AD007B
S214081950AD00AD005400824BDB88002B7FF4B1AE9F
S214081960804A7F4B1A610123B3E67D4BDB88002B48
S2140819707FF4A7AE7A4B5B88012B7FF4A2AE7A4A37
S214081980138823F002031380EDE7754BDB88002BE2
S2140819907FF497AE724B5B88022B40F0DD80734B6A
S2140819A0984700283FF486AE6D4B1B79002B7FF4D2
S2140819B081AE6F4B98476A4B9B881B0A013B032BEB
S2140819C000F2CC80DFE803F002060A0E694A644B90
S2140819D01A61C8E7684A624B1A61C4E7674A604BEF
S2140819E01A61C0E7664A5E4B1A61BCE75C4BDB8847
S2140819F0002B7FF466AE634B984700283FF45AAE38
S214081A005A4B9847002836D0554B9A785E4B9B68B9
S214081A105B7C9A423FF74EAE554B9847504B9B78A7
S214081A205A4A1370002B9ED0504B984700282AD04D
S214081A30564B1B7803F10053013B534A126902EBDD
S214081A40C303534A1360524B1B681B681B79002B51
S214081A5089D0002426464F4D4D4F31462046A8478C
S214081A6000283FF427AE0134E4B23B681B681B79B4
S214081A70A342F2D877E73A4B9A78434B1B685B7CCD
S214081A809A42C9DD16E6414B1B7803F10053013B29
S214081A903D4A526802EBC3033D4A1360D3E7012B65
S214081AA00DD0022B7FF406AE2D4B5B78012B2ED083
S214081AB0032B3CD00023002B7FF40BAEFAE5284A14
S214081AC052780B2AEDD1264BDB8813B92F4B1B789F
S214081AD073B92E4B1B78002B00F0AB80204B1C797B
S214081AE02B4B1D682B681B79A3425DD80023F0E5B5
S214081AF01B4B1C795D882046274B984700283FF4E7
S214081B00D9ADE9B22046234B98470346D3E7144B92
S214081B10DB88002B7FF4D5AD114B5B88002B7FF458
S214081B20D0AD0F4B18791D4B98470346C3E70C4BAF
S214081B30DB88002B7FF4C5AD094B5B88002B7FF450
S214081B40C0AD074C2079164B98472079154B984717
S214081B500346B0E70023AEE70023ACE70023AAE776
S214081B6064530720BD1408002E1007203D2C0800DB
S214081B70111608007532080091320800AD320800C8
S214081B80C1320800792C08005401072038100720B5
S214081B903C100720B515080049150800252E080032
S214081BA0F5310800252D080000212046224B9847CD
S214081BB000283FF486AD6B6853F82450EB689847C6
S214081BC0014620461C4B984700283FF47AADAB6880
S214081BD09847034600287FF47CAD72E5174B1B78C0
S214081BE00BB3174B1A6813681B79F3B10024124E0F
S214081BF0134F536853F82450EB689847014620461D
S214081C00B047034600283FF464ADAB6898470346E0
S214081C1000287FF45EAD0134E4B23A6811680979A9
S214081C20A142E6D855E5002353E5002351E50023F5
S214081C304FE500234DE500BFD514080038100720EF
S214081C403C10072010B54FF400421F4B5A600B207B
S214081C501E4CA0470C20A0470D20A0470E20A047EA
S214081C604FF060513B201A4CA0474FF0605155206A
S214081C70A0474FF060515620A04716496820A04755
S214081C8015495C20A0474FF000611920A0474FF087
S214081C9000611A20A0474FF000611B20A0474FF0B4
S214081CA000611C20A0474FF000611120A0474FF0AC
S214081CB000611220A0474FF000610A20A0474FF0AD
S214081CC000610B20A04710BD501A0E4021200800C6
S214081CD0C91D080079000028010000280B4619B124
S214081CE0096881605B68C3601AB1136883615368CA
S214081CF0C36170470B4619B1096801605B684360A9
S214081D001AB11368036153684361704721F0FE01F6
S214081D10C905C90D0162704721F4FE7121F0010161
S214081D208905890D016270474264B1F1805F16D05B
S214081D300BD849B1B1F1006F05D1036F016F0B40A5
S214081D4023EA0203036742607047B1F1405FFBD0A5
S214081D50B1F1605FF8D0B1F1205FF4D17047036F3E
S214081D6013430367EFE7416412F0010F14BF41669F
S214081D70016612F00A0F14BF0162416212F0020FE8
S214081D8007D112F0080F18BFC0F88410416101602F
S214081D907047C0F88010F9E710B4019C416444B954
S214081DA0016643B1016542B941630161016010BC37
S214081DB070474166F5E74165F5E70163F5E7C06CEE
S214081DC07047806C7047000070B582B00D464309B6
S214081DD003F5001303F207735C0201F0F043B3F156
S214081DE0205F31D016D8B3F1006F1BD0B3F1805FF7
S214081DF016D100F01F000126864032464FF080516B
S214081E002046224B984715F0010F14BF66662666D3
S214081E10012017E0B3F1405F21D0B3F1605F1ED018
S214081E2000200FE000F01F000126864032464FF0E3
S214081E3000612046154B984715F0010F14BF6666DB
S214081E402666012002B070BD00F01F0101262A4652
S214081E5006FA01F120460E4B98473046F2E705F0A1
S214081E60605200F01F01012605EA06030093C5F339
S214081E708003B2F1605F14BF0022012206FA01F166
S214081E802046044CA0473046DCE700BF291D080062
S214081E90671D0800991D08002DE9F041044688468C
S214081EA00E4B9847054620460D4B9847054013D0DD
S214081EB00C4C04F1600603E0B4420DD010345DB15A
S214081EC020684045F8D161682942F5D0E36898470C
S214081ED0636825EA0305EFE7BDE8F081BF1D080043
S214081EE0C31D08004410072008B50B210148024B03
S214081EF0984708BD000E0E40991E080008B50C212C
S214081F000148024B984708BD00100E40991E08006D
S214081F1008B50D210148024B984708BD00120E402F
S214081F20991E080008B50E210148024B984708BDBF
S214081F3000140E40991E0800174A136B23F070030E
S214081F4018431063936E13F0080F0AD14FF400631A
S214081F5011498A6E12F0080F03D1013BF9D101200E
S214081F6070470D4A136B23F0030343F00203136311
S214081F70936E13F0080F0AD14FF4006306498A6E71
S214081F8012F0080F05D1013BF9D101207047002057
S214081F9070470020704700BF00060E40C8B9114AB7
S214081FA0136A090289B223F45C1323F0030343F48B
S214081FB05C1343F001030B431362936E13F0010F97
S214081FC0FBD0084A136A43F09B7343F480331362CA
S214081FD0704704490B6A044A1A40044B13430B62C1
S214081FE0704700BF00060E40FCFFC8FE020037011F
S214081FF0024B986E00F48030704700BF00060E4013
S2140820004FF00052014B9A62704700BF00060E4020
S214082010024B986E00F00200704700BF00060E40A4
S21408202000F07F00054BC3F80C01D3F80C2142F0F2
S2140820301022C3F80C210020704700BF00060E408F
S214082040024B187880F00100704700BFB4100720D4
S2140820508162036A7047006A7047C06A7047816089
S2140820607047C160704700697047406970474FF411
S214082070807303607047000082B0EFF31083B3FAF2
S21408208083F35B09019372B6BFF35F8F00220C4B94
S2140820901A70019B01210B4A116023B1084B197075
S2140820A0BFF35F8F62B60222074B1A60074A002307
S2140820B0136153619381064A137002B0704700BFDC
S2140820C06E02072020C20A4060C10A4064530720F7
S2140820D0BC1007200522034B1A704FF40022024B4F
S2140820E01A607047BC100720F0C10A4082B003226D
S2140820F00F4B1A70EFF31083B3FA83F35B0901935F
S21408210072B6BFF35F8F00220A4B1A7001980A490D
S21408211001220A60094B1A6008220A601A6028B170
S2140821200122044B1A70BFF35F8F62B602B0704785
S214082130BC1007206E02072060C10A40F0C10A40A2
S21408214008B5024B1B6903B1984708BD64530720BE
S21408215030B585B0EFF31083B3FA83F35B090193C8
S21408216072B6BFF35F8F00224C4B1A70019B012199
S2140821704B4A116023B1494B1970BFF35F8F62B6A3
S214082180484B1B78032B57D0474B1B88474A9489E4
S214082190E41AA4B2C4B9464A11880B449BB2138009
S2140821A0424AD2889A424CD0424B1B78002B48D1E0
S2140821B03E4B5B69002B61D0984700285ED0002212
S2140821C0394B1A80394B9C893F2C57D90022394BFA
S2140821D01A704024354B9A68334B1D88EFF31083EA
S2140821E0B3FA83F35B09029372B6BFF35F8F0021DD
S2140821F02A4B19700298304B1B6813F0020F41D116
S21408220044B12A442D4B12F8011B03F8011BD9B21E
S214082210A142F8D3244B1A8814441C800123284A68
S214082220136090321360002836D01A461B4B1A707B
S214082230BFF35F8F62B62FE0224B9847224B984732
S2140822402AE00422174B1A70EFF31083B3FA83F3CD
S2140822505B09039372B6BFF35F8F00220F4B1A70A9
S214082260039A102316490B6090310B60A2B1012225
S2140822700A4B1A70BFF35F8F62B60DE001220D4B52
S2140822801A70A7E728B10122044B1A70BFF35F8FB4
S21408229062B60422034B1A7005B030BD6E020720E2
S2140822A020C20A40BC100720B81007206453072035
S2140822B0BA100720B510072030C10A4000001820C1
S2140822C060C10A404121080079200800037D13F008
S2140822D0010F13D010B50C46037D6FF3000303758A
S2140822E0036853B1064951F8221011F4807F18BFCD
S2140822F042F0800281682046984710BD704700BFAC
S21408230000C10A40431E03EB43015F4A02EBC102C9
S214082310127D12F0010F00F0B580F0B583B00A46C2
S214082320594901EBC202D1689268914277D0521A95
S214082330B2F5803F92BF17044FF480320027534C03
S21408234054F8205015F4807F14D054F82050C5F364
S21408235002150824AC40013C144213D047F0080785
S21408236003EB4304484D05EBC404257D6FF3410594
S214082370257507E054F82050C5F3C125012D37D040
S21408238047F01407424C04EB001403EB43053E4E9B
S21408239006EBC5056D6829446160EFF31081B1FA54
S2140823A081F14909019172B6BFF35F8F002539495B
S2140823B00D70019DE16811F0100F22D147F021073A
S2140823C0A76003EB430006EBC001C8681044C8606A
S2140823D00A614FF0007000FA03F32F4A9361002D4C
S2140823E04ED001222B4B1A70BFF35F8F62B647E0C0
S2140823F054F82050C5F302150824AC40A242C1D8B0
S214082400BEE72DB10121234A1170BFF35F8F62B674
S21408241003EB43021C4901EBC202D16891601B4AD8
S21408242052F8202012F4807F21D003EB430216498D
S21408243001EBC202127D12F0020F18D00122174BD0
S21408244043F82020303B53F8203013F4803F1CBF5D
S214082450134B43F820200122124B43F820204FF458
S214082460805202FA00F0A3F5F873986108E0024675
S21408247003EB43030021044800EBC3000A4B9847CC
S21408248003B0F0BD704700BFC010072000C10A4067
S21408249000C30A406E02072000C00A4060C10A4016
S2140824A090C10A40F0C10A40CD22080082B0014619
S2140824B028BB244B1B781BB9224B197002B07047F7
S2140824C0214B9B7803B9FEE7EFF31083B3FA83F347
S2140824D05B09009372B6BFF35F8F00221B4B1A701E
S2140824E00098194A9378013B93700028E4D001229B
S2140824F0164B1A70BFF35F8F62B6DDE7FEE7114B27
S2140825001B78002BD8D1104B9B78FF2BF6D0EFF317
S2140825101083B3FA83F35B09019372B6BFF35F8F38
S21408252000220A4B1A700198074A93780133937071
S2140825300028C1D00122054B1A70BFF35F8F62B620
S214082540BAE700BFB61007205C5307206E020720C4
S21408255070B582B0EFF31083B3FA83F35B09019387
S21408256072B6BFF35F8F0022194B1A70019C0120C8
S214082570184B9847184AD2F8003823F48043C2F814
S2140825800038D2F8043813F4804FFAD0124B1A6881
S21408259022F480721A6008269E6101219961102231
S2140825A09A6104259D61022098619E609D609860EE
S2140825B0D9609A60D3F8002842F48042C3F800280D
S2140825C024B1034B1970BFF35F8F62B602B070BDBB
S2140825D06E020720AD24080000C00A4008B50A4B62
S2140825E0D3F8002822F48042C3F800281A6842F478
S2140825F080721A60D3F8002842F48042C3F8002894
S2140826000020024B984708BD00C00A40AD240800C9
S2140826102DE9F04385B09A4B984720B9994B5B68EB
S21408262013F0010F0FD0974B5B6813F0040F14D00C
S214082630944B04229A60D3F8043813F4405F09D008
S21408264005B0BDE8F08372B6BFF35F8F00228E4BED
S2140826501A70F5E78D4B9847F2E78A4B5B6813F0DC
S214082660020F33D1874B5B6813F4805F26D0884B04
S21408267010221A6008221A60F03B1B6813F0040F39
S2140826802AD1844B1B6813F0010F05D0824B1B68B8
S21408269013F0010F40F085807E4B1B6813F0020F85
S2140826A040F082807B4B1B6813F0080F40F03081A7
S2140826B0784B1B6813F0100F40F03D81774E0123CE
S2140826C0704A4FF0007E4FF4805C7FE102226D4B2B
S2140826D09A606E4B9847B3E7714B1B78002B41D135
S2140826E06C4B1B68C3F30A53082B40D16D4A6E4BDC
S2140826F06E4813F8011B02F8011F8342F9D16C4B90
S2140827009847002839D004226A4B1A606A4B93F916
S2140827100030002B37DB684BDB88002B3ED00022CE
S214082720664B1A80664B1A8001215D4B1970102182
S214082730604B1960EFF31083B3FA83F35B090193D8
S21408274072B6BFF35F8F504B1A70019B5D4A1160DB
S214082750002B3FF475AF01224B4B1A70BFF35F8F07
S21408276062B66DE7584B9847584B9847B8E7584BAA
S214082770984704224F4B1A6062E7554B9847042245
S2140827804C4B1A605CE700234C4A13804C4A138073
S2140827900222434B1A704F4B984751E74E4B9847C7
S2140827A04EE74C4B98474BE73D4B1B78012B0BD01D
S2140827B0022B04D0042B02D0454B984701E0424B2D
S2140827C09847424B98473BE7324B1868C0F30A5085
S2140827D0394B9B893A4A148822189342BCBF1B1B64
S2140827E098B2354B9A6878B1631E1A442E4B13F884
S2140827F0011B02F8011FD9B28142F8D30444A4B2DF
S2140828002F4B1C8040280CD02B4B9C815B6913B146
S214082810984700282ED00222264B1A602E4B98473F
S2140828200EE7254BDA88254B1B8823449A42EBDDB6
S214082830214B9B89A34251D01E4B02221A601022BC
S2140828401A60EFF31083B3FA83F35B09029372B648
S214082850BFF35F8F00210C4B1970029B19490A6061
S214082860002B3FF4EDAE0122074B1A70BFF35F8FC3
S21408287062B6E5E6164B984702220E4B1A60DFE66C
S2140828804120080000C00A406E02072059160800BA
S21408289020C20A4030C10A40C0C10A4034C10A40BA
S2140828A0BC100720635307200000182008001820D3
S2140828B09916080060C10A4064530720BA1007201A
S2140828C0B8100720F0C10A40412108007920080006
S2140828D0D520080051210800ED200800A54B5B69AB
S2140828E053B1984770B1A449A44A0B88108803448A
S2140828F00B80002313809FE7A14B98470222A14B29
S2140829001A609DE69E4B984702229E4B1A6097E6F1
S21408291008229C4B1A60303B1B6813F0010F7FF4AB
S2140829208FAE994B1B78032B7FF48AAE4FF40022A8
S214082930964B1A6084E61022924B1A60303B1B684E
S21408294013F0020F7FF47CAE8F4B1B78012B07D059
S214082950042B7FF475AE4FF400228C4B1A606FE69A
S2140829608B4B98476CE68B4B03EB0013DA6812F038
S214082970010F7FF465AE884A5161DD682D0C08D0DA
S214082980864B7900CC1903EBC404E268521BE2605C
S214082990A260834B984753E6824B012249F80320EE
S2140829A0784949F801204FF4804249F8032007EB9C
S2140829B0470702460021794800EBC7007A4B98473C
S2140829C03EE601330436042B00F00081D8B21D46DB
S2140829D05F1EB84614690EFA07F10C4202D0546816
S2140829E02142C0D111690CFA05F52942E9D04FEA0F
S2140829F0830906F19004D6F8901011F0010F03D061
S214082A00316811F0010FC7D1216811F4805FD8D062
S214082A10316811F4405FD4D14FF48052614B49F8C5
S214082A200320A3F508735D6108EB48085B4B03EBCE
S214082A30C80898F814206FF3820288F814205B4AB6
S214082A4059F8023023F4007349F802304F4B4FF41C
S214082A50002249F803204FF4802249F80320EFE5C6
S214082A604D4C0823A3604D4E0122114630464E4D6C
S214082A70A8470222012106F11800A84703220121CF
S214082A8006F13000A8474A4B9847236823F07F038F
S214082A902360236843F080032360444A136823F4C2
S214082AA0CB5323F01C0343F030031360136843F042
S214082AB002031360E36943F00103E361EFF3108355
S214082AC0B3FA83F35B09039372B6BFF35F8F0022F2
S214082AD0384B1A70039A2D4B04211960022119608D
S214082AE04FF48053A3612AB10122324B1A70BFF308
S214082AF05F8F62B6304B9847A2E5274BD3F800287D
S214082B0022F48042C3F8002801225A6110229A61F2
S214082B10D3F8002842F48042C3F800280020274B48
S214082B2098478DE51C4BD3F8043813F0020F3FF492
S214082B3087AD194BD3F8002822F48042C3F8002842
S214082B400222C3F80828D3F8002842F48042C3F8C3
S214082B500028D3F8043813F4006F14BF184B194B29
S214082B6098470D4BD3F80408C0F3C020164B984777
S214082B7066E500BF64530720BA100720B810072080
S214082B80D520080060C10A40BC100720F0C10A40E2
S214082B90ED20080000C30A4000C00A40C010072005
S214082BA00523080020C20A40CD22080000C10A40BA
S214082BB0111608006E02072079200800AD240800C8
S214082BC051250800DD25080001380800194B5B6808
S214082BD013F0080F7FF444AF164B1B6913F0010F70
S214082BE004D0144B5B6813F0010F86D1114B1B6998
S214082BF013F0100F96D00F4B5B6813F0100F91D0A0
S214082C000C4AD2F8003823F48043C2F8003813463A
S214082C10D3F8042812F4804F03D15A6812F0010F33
S214082C20F6D0044B10225A6101209861024B98474F
S214082C3006E500BF00C00A40AD240800034BD3F8E1
S214082C40040810F4405018BF0120704700C00A401E
S214082C50084B1A6822F080021A601A6822F07F026F
S214082C6000F07F0002431A601A6842F080021A6079
S214082C70704700BF00C00A40024B186800F07F008B
S214082C80704700BF00C00A40024B186AC0F3CA006B
S214082C90704700BF00C00A40024B186AC0F30D0018
S214082CA0704700BF00C00A40014B98609981704782
S214082CB06453072000F00F02032A00D9704770B546
S214082CC01048C369012101FA02F423EA0403C36128
S214082CD000F5807050F8223023F0020340F82230C6
S214082CE0561E094C06FA01F5A81904EBC000074B56
S214082CF09847354404EBC504237D6FF38203237598
S214082D0070BD00BF00C00A40C0100720CD220800D2
S214082D1000F00F00024B53F82000C0F3C040704785
S214082D20C0C10A4000F00F03032B5DD8354A52F89D
S214082D30232012F4002F59D110B483B0591E01EB8A
S214082D404104314A02EBC402127D12F0040F4FD13F
S214082D5012F0010F50D1EFF31082B2FA82F2520944
S214082D60019272B6BFF35F8F0024284A1470019C44
S214082D7010F0800F18D1264951F8232022F400724B
S214082D8041F823204021234A42F823104FF400211B
S214082D90903242F82310002C32D001201B4B1870BA
S214082DA0BFF35F8F62B624E01B4A52F8232012F462
S214082DB0405FE0D001EB4101134A02EBC1010A7DF6
S214082DC042F004020A754FF48052144941F8232051
S214082DD002FA03F3124A936184B101200B4B187070
S214082DE0BFF35F8F62B604E000207047012070478B
S214082DF0012003B010BC70470020FAE70120F8E76E
S214082E000120F6E7C0C10A40C01007206E0207205E
S214082E1000C10A4060C10A4030C10A40F0C10A40F9
S214082E2000C00A4000F00F00032851D810B5431E12
S214082E3003EB43012C4A02EBC102127D12F0040F89
S214082E4048D00A46284901EBC202117D6FF3820179
S214082E50117582004FF48051244C44F820108140AC
S214082E60A4F508746161224951F8201011F4002F66
S214082E7014D02049515811F0400F06D040201E4962
S214082E8050504FF48020903150504FF4002017498E
S214082E9050501A48115841F40071115003EB430280
S214082EA0114901EBC202127D12F0010F01D1012077
S214082EB010BD08465900CA1800EBC202147D6FF30D
S214082EC0000414750B4450F833309847012010BDA1
S214082ED0002070478200064951F8201011F4002F90
S214082EE0C7D1012010BD00BFC010072020C20A406D
S214082EF0C0C10A4030C10A4060C10A4000C10A4049
S214082F0000F00F00032864D8F0B583B0364CE569A6
S214082F10012484402C425ED0344C54F8204014F4EB
S214082F20002F5BD1441E04EB4406314D05EBC60565
S214082F302D7D15F0040F53D1EFF31085B5FA85F5FE
S214082F406D09019572B6BFF35F8F0026294D2E7066
S214082F50019F04EB4405264E06EBC5052D7D15F0AE
S214082F60010F09D0002F3DD00122224B1A70BFF363
S214082F705F8F62B600202FE004EB44051C4E06EB7C
S214082F80C5052E7D46F001062E752FB10126194D72
S214082F902E70BFF35F8F62B6154F04EB4405ED0045
S214082FA07E197260B3600022F2603261089A7A5124
S214082FB011B9B3FA83F1490904EB44040C4B03EB4B
S214082FC0C404237D61F3410323750B4B9847012006
S214082FD002E000207047002003B0F0BD0020FBE7A9
S214082FE00020F9E70020F7E700C00A40C0C10A4001
S214082FF0C01007206E020720052308002DE9F04FB1
S21408300083B000F00F04032C00F2DF80744BDD69F8
S2140830100123A3402B4040F0DD8011F0030500F0AB
S214083020DB80022D20D9032D40F0D6804FF0000E0D
S2140830306C4E06EB840556F8247027F4CB5727F019
S2140830401C07C90201F4C05140B20028B8BF4FF4AB
S2140830508073A2F5806080B2B0F57C4F07D3082A4B
S21408306024D95200013A04E04FF0010EE0E740F29E
S214083070FF72B2FA82F241EA8E011943C2F11C03CA
S21408308041EA031323F4D06323F00303DB04DB0CC9
S2140830903B4346F824300127A740BFB2022C1CD871
S2140830A0514A03234E484FF0010E06E00F22E0E790
S2140830B0013B043AD9B28C420FD2C6690EFA03F124
S2140830C00E42F5D00F43BFB2C66926EA0101C161B8
S2140830D0116821F002011160EAE704EB4403434E4D
S2140830E006EBC306DFF80491DFF8F480DFF800A1EA
S2140830F01DE001EB41033D4A52F83340002C6DD0E9
S2140831002B6813F4807F18BF40F0800001EB410164
S214083110364B03EBC1010246C9680120A0470023CD
S21408312054E0013404351836E3B2032B4BD8E0B22A
S21408313047FA04F313F0010FF3D0611E01EB4103C5
S21408314009EBC30393F814E00EF001026FF3000EC8
S21408315083F814E02B6843F002032B60D8F81CE0D1
S2140831600123A34043EA0E03C8F81C302B6B13F464
S214083170802FBED02B6843F400732B60002AD0D073
S21408318056F80C3C56F8082C9A1A46F80C2C2B685D
S21408319013F4807F18BF40F0800056F810BC56F82D
S2140831A014CC01EB410109EBC101097D56F8183C26
S2140831B00093ABEB02036244C1F34001D0470346D9
S2140831C00028AED102E0012300E00023184603B031
S2140831D0BDE8F08F0023F9E70023F7E70023F5E7BB
S2140831E000C00A4000C10A400CC10A40C0100720AF
S2140831F0012F080070B500F00F02541E4FF0007340
S214083200A34016494B61164B03EB021300259D603D
S2140832104FF4805393404B6110F0800F08D104EBB5
S214083220440401210F4800EBC4000F4B984770BDBB
S21408323093000E4818440E4D1D444FF4005601F5F1
S214083240E071194404E02E600B6813F4005FFBD1AC
S214083250036813F4405FF6D1E1E700BF00C00A40F8
S21408326000C30A40C0100720CD22080030C10A401B
S214083270F0C10A40054A136823F4406343F4006328
S2140832801360136843F400531360704700C00A4085
S214083290054A136823F4406343F400631360136815
S2140832A043F480431360704700C00A40034A13681B
S2140832B023F4406343F400631360704700C00A4079
S2140832C030B48EB06C461F4D0FCD0FC40FCD0FC453
S2140832D00FCD0FC495E8030044F8040B21701A4A72
S2140832E0D36923F00103D36118490B6823F4CB5341
S2140832F023F01C0343F4895343F010030B600B6858
S21408330043F002030B60D36943F00103D3611368EB
S21408331023F4406343F400631360136843F40043E4
S21408332013600B4A6B460DF1350013F8011B02F8C3
S214083330011F8342F9D14FF48042064B1A600EB043
S21408334030BC7047A85F080000C00A4000C10A40A9
S214083350FFFF172020C20A4010B40B01934214D96D
S214083360C9004B0803EBC202B2FBF1F2D3085C1E9D
S2140833704FF6FE718C4201D9012017E0416841F4EE
S214083380002141600CE0012010E0590801EBC20260
S214083390B2FBF3F2D3085C1E4FF6FE718C42F2D8ED
S2140833A0120402F4E0221A430262002010BC70479E
S2140833B0084BC0F8E43000234360436283628823E6
S2140833C00360242303604FF4807303604FF40023E4
S2140833D0036070470041535570B505460C461646BF
S2140833E00F4B984700220F4B1A60A4B1324621684B
S2140833F028460D4B9847024678B96368A1680B4380
S21408340021690B43E1680B4306490B6069680B4367
S2140834106B60104670BD0122FBE70122F9E700BF8A
S214083420B133080008110720593308004023036009
S214083430704780230360704710230360704720237B
S214083440036070474162704781607047C16070478B
S21408345000697047406970474FF48073036070478F
S2140834604FF4006303607047FEE7000008B51C4B86
S2140834701C4A9A4210D01C4B194A9A420CD2013B5D
S2140834809B1A23F0030304331344164951F8040B1C
S21408349042F8040B9A42F9D1144B154A9A420AD2BA
S2140834A0013B9B1A23F0030304331344002142F81C
S2140834B0041B9342FBD10F4B23F0604222F07F029D
S2140834C00D498A6003F16043B3F5801F03D28B6809
S2140834D043F000538B60094B9847094B9847FEE723
S2140834E000000720BC620800EC060720E05307200F
S2140834F0EC0607200000080000ED00E0615A08000E
S214083500C95708003D4B1B6B03F00303032B0ED86B
S214083510DFE803F0021C3838394B5B6913F0800F7C
S21408352014BF4FF400424FF4FA42364B1A60334B3E
S2140835301B6B03F07003702B57D0304B1A6B314956
S214083540C2F302120B68D3400B6070472B4B1B6A02
S21408355013F0807F03D02C4A2A4B1A60E7E72B4AE1
S214083560284B1A60254B1B6A03F07003102B05D0F6
S214083570202BDCD1244A234B1A60D8E7244A214B57
S2140835801A60D4E71D4B1B6A13F0807F0CD01E4AC6
S2140835901C4B1A60194B1B6B03F00303022B16D047
S2140835A01C4A184B1A60C2E7184A164B1A60134B87
S2140835B01B6A03F07003102B05D0202BEAD1124AA1
S2140835C0104B1A60E6E7124A0E4B1A60E2E70B4AFF
S2140835D0916A926A0B48C1F30A41036801FB0333F8
S2140835E0D2B2B3FBF2F30360A1E7064A13680A49AE
S2140835F0A1FB03135B081360704700BF00060E406C
S214083600101A0E4070020720001BB70000093D0084
S21408361000127A00001C4E0EABAAAAAAF8B50746F6
S214083620244C254E254D02E00522254B1A704F22C4
S21408363000212046B0474FF0FF3301222146384686
S214083640A8472378623B102B30D801A252F823F003
S21408365029360800AD360800AD360800AD36080035
S21408366095360800AD360800AD360800AD360800B9
S214083670AD360800AD3608009D360800AD360800A1
S214083680AD360800AD360800AD360800AD36080081
S214083690A536080002220A4B1A70C8E70322084B10
S2140836A01A70C4E70422064B1A70C0E70122044BBE
S2140836B01A70BCE7AC1107209D5B0800E90D0800EE
S2140836C0545307202DE9F04383B007460322002110
S2140836D001201C4B9847054600282ED000231A4682
S2140836E01946194CA04700212846184B9847DFF87A
S2140836F07C90DFF87C80164C07E0C8212846134BE0
S21408370098474FF4FA70134B984798F8003059F8D2
S21408371023102046104B98472046104B9847009594
S21408372064230246214638460D4EB0470028E4D0AA
S214083730A2210C480C4B9847DFE7912109480A4B11
S2140837409847D0E7993E0800313F08001144080022
S2140837500C110720E14C0800395C0800F55C0800ED
S2140837605D0D0800406008006158080074020720D4
S214083770545307202DE9F0418CB0864688461746F4
S214083780164C08AE94E80F0086E80F0002AD103419
S2140837900FCC0FC594E8030085E80300324602A95B
S2140837A070460F4B9847054698B100260196009735
S2140837B02B4642460B490C480C4CA047019601374D
S2140837C000972B4642460A490A48A0470CB0BDE86F
S2140837D0F08176210848094B9847E6E7E05F08003D
S2140837E0690B080008600800C5360800CD470800C1
S2140837F00C6008001D360800406008006158080084
S21408380008B510B9024B984708BD024B984708BD43
S214083810DD250800512508000120014B1870704767
S214083820FB11072000B583B0002301930D4B1B68DE
S2140838308BB101A90B4B18680B4B9847019B3BB102
S2140838404FF08052094B1A60BFF34F8FBFF36F8F4C
S21408385003B05DF804FB40F217110548054B98477E
S214083860E7E700BFFC110720D941080004ED00E097
S21408387098600800615808000022014B1A707047CB
S214083880FB11072000F1080343604FF0FF32826007
S214083890C360036100230360704700230361704719
S2140838A043684B609A688A609A68516099600861B4
S2140838B0036801330360704730B40D68B5F1FF3F05
S2140838C002D000F1080202E0026904E01A465368D2
S2140838D01C68A542FAD253684B6099608A605160AA
S2140838E0086103680133036030BC704703694268A7
S2140838F0816891608268416851605A68904204BF46
S21408390082685A60002202611A68013A1A601868CA
S2140839107047000006480068006880F3088862B6AA
S21408392061B6BFF34F8FBFF36F8F00DF00BF000095
S21408393008ED00E000B583B0002301930B4B1B682D
S214083940B3F1FF3F03D0CB2109480A4B98474FF005
S214083950A00383F31188BFF36F8FBFF34F8F019BCC
S214083960002BFCD003B05DF804FB00BF8C020720D8
S214083970F8600800615808004FF0807340F8043C6F
S21408398021F0010140F8081C034B40F80C3C40F8B5
S214083990202C4038704700BF35390800000000006A
S2140839A0074B19680868B0E8F00F80F30988BFF37A
S2140839B06F8F4FF0000080F311884EF00D0E7047A1
S2140839C01052072008B54FF0A00383F31188BFF301
S2140839D06F8FBFF34F8F094A136801331360012BAB
S2140839E000D008BD064B1B6813F0FF0FF9D04FF444
S2140839F0BB710448044B9847F3E700BF8C020720C6
S214083A0004ED00E0F86008006158080008B5084BA7
S214083A101B683BB1064A1368013B13600BB983F376
S214083A20118808BD40F27D110248034B9847F1E71C
S214083A308C020720F86008006158080000000000A3
S214083A40EFF30980BFF36F8F0D4B1A6820E9F00F6C
S214083A5010602DE908404FF0A00080F3118801F0AF
S214083A606BF94FF0000080F31188BDE8084019682C
S214083A700868B0E8F00F80F30988BFF36F8F7047C7
S214083A801052072008B54FF0A00383F31188BFF340
S214083A906F8FBFF34F8F054B984718B14FF0805282
S214083AA0034B1A60002383F3118808BD894A08006F
S214083AB004ED00E0054B00221A6005490A60054936
S214083AC0054A116007221A60704700BF10E000E040
S214083AD018E000E01F48010014E000E010B582B0CE
S214083AE02C4B1A78D2B20192FF221A701B78DBB2DE
S214083AF08DF803309DF8033003F0A003264A1370B0
S214083B000722264B1A609DF8033013F0800F12D058
S214083B10062200E00A469DF803305B00DBB28DF80B
S214083B2003309DF80330511E13F0800FF2D11B4B63
S214083B301A60032A0DD04FF497711948194B984705
S214083B40164B1B68032B04D040F237111448154B4C
S214083B509847124A13681B0203F4E0631360019B3C
S214083B60DBB20C4A1370104B1A6842F470021A60E3
S214083B701A6842F070421A600C4B984700240C4BA7
S214083B801C600C4B98470C4B98470C4B98472046A4
S214083B9002B010BD00E400E000120720041207205F
S214083BA0F86008006158080020ED00E0B53A080003
S214083BB08C02072015390800394D080035390800E9
S214083BC008B5EFF305830F2B06D90E4A9B5CDBB2CC
S214083BD00D4A12789A4208D80C4B1B6803F4E06327
S214083BE00B4A1268934206D808BD40F2A621094837
S214083BF0094B9847F0E740F2B6210648064B984727
S214083C00F2E700BFF0E300E0001207200CED00E04A
S214083C1004120720F86008006158080038B5044602
S214083C2010F0070F1CBF20F007040834114B984704
S214083C30114B1B6893B1114B1B681C4443F6F77273
S214083C40944211D8A3420FD20B4A15681D440B4B59
S214083C501C600B4B98474DB1284638BD094B23F0DE
S214083C600703054A1360E6E7054B9847064B98474F
S214083C700025F1E7594A0800081207200C520720C9
S214083C80C54B0800141207203D58080028B108B58F
S214083C9083210248024B984708BD70474C610800CC
S214083CA06158080010B50446044B9847A46B044BAB
S214083CB09847B4FA84F0400910BD00BFC53908001B
S214083CC00D3A080070B504461646856B026C5AB95C
S214083CD00368002013B10135A56370BD6068174BF3
S214083CE0984700236360F6E76EB98068144B9847D8
S214083CF0A368226C1344A3606268934219D32368AE
S214083D00A3600020E7E7C0680D4B9847226C524234
S214083D10E3681344E36021688B4202D263681A445E
S214083D20E260022E01D00020D5E725B1013D002033
S214083D30D1E70020CFE70020CDE700BF11510800EB
S214083D40B15A0800026C72B110B5C3681344C36058
S214083D504468A34224BF0368C3600C46C168204673
S214083D60014B984710BD7047B15A08002DE9F0413D
S214083D700546204B984795F8454064B2002C12DD5E
S214083D806B6A83B105F124071B4EDFF8748004E0E4
S214083D90013C64B23CB16B6A2BB13846B047002888
S214083DA0F6D0C047F4E7FF2385F84530134B98470D
S214083DB0104B984795F8444064B2002C12DD2B69E6
S214083DC083B105F110070C4EDFF8348004E0013C9F
S214083DD064B23CB12B692BB13846B0470028F6D000
S214083DE0C047F4E7FF2385F84430044B9847BDE8FE
S214083DF0F08100BFC5390800B14E08000D3A08002A
S214083E002550080038B50D460446D0B11B4B9847D8
S214083E102268216CE36B03FB01F3D0186060002076
S214083E20A063A2605B1A1344E360FF2384F844305F
S214083E3084F84530CDB9236943B9114B984701201A
S214083E4038BDFC210F48104B9847DFE704F11000F7
S214083E500E4B98470028F0D04FF080520C4B1A6053
S214083E60BFF34F8FBFF36F8FE7E704F11000094DDC
S214083E70A84704F12400A847DFE700BFC5390800B3
S214083E800D3A08009C61080061580800B14E080009
S214083E9004ED00E085380800F8B50D4617460646D6
S214083EA0A0B105FB06F050300C4B9847044658B1B5
S214083EB095B100F150030360E663256401212046AE
S214083EC0074B984784F84C702046F8BD40F26D11B1
S214083ED00448054B9847E4E72060EDE71D3C0800DA
S214083EE0053E08009C6108006158080038B50D4674
S214083EF0044658B1AC420FD3022200212046094B93
S214083F009847034600B18563184638BD4FF43071AC
S214083F100548064B9847EDE740F2C1210248034B97
S214083F209847E9E7993E08009C6108006158080030
S214083F302DE9F04F85B0894601921E460446A8B181
S214083F40B9F1000F18D0022E1FD0564B984730B93B
S214083F50019B23B140F2E1215348544B98474FF058
S214083F60000A534D534FDFF854814AE04FF4377137
S214083F704D484E4B9847E3E7236C002BE3D040F2BE
S214083F80DD214948494B9847DDE7E36B012BDCD038
S214083F9040F2DE214448454B9847D6E73246494624
S214083FA02046454B9847636A73B938B14FF080523C
S214083FB0424B1A60BFF34F8FBFF36F8F404B984743
S214083FC0012005B0BDE8F08F04F124003D4B98476A
S214083FD00028F3D04FF08052384B1A60BFF34F8F4B
S214083FE0BFF36F8FEAE7364B98470020E9E702A849
S214083FF0B84713E02046344B9847344B98474FF061
S214084000010AA847A26BE36B9A42C7D3022EC5D013
S214084010019B002BE7D0BAF1000FE8D0284B984751
S2140840202B4B9847A84794F844305BB2B3F1FF3F50
S21408403004BF002384F8443094F845305BB2B3F1EB
S214084040FF3F04BF002384F845301D4B984701A95D
S21408405002A8204B9847E8B9A847D4F838B0D4F84F
S2140840603CA0174B9847D345C4D1019904F11000DA
S214084070194B98472046144B9847144B98470028E6
S214084080BDD14FF08053C8F80030BFF34F8FBFF351
S2140840906F8FB4E720460C4B98470C4B9847002088
S2140840A08FE700BF315008009C610800615808007F
S2140840B0C5390800854F0800C53C080004ED00E037
S2140840C00D3A0800B14E08006D3D0800C54B0800C3
S2140840D0594A08009D4F0800294E080038B5024680
S2140840E000210120064B9847044638B1002141605C
S2140840F00160C1600B460A46024DA847204638BDF7
S214084100993E0800313F08002DE9F8430F469146CE
S2140841101E460446C8B1F7B1022E25D0294B98474B
S214084120EFF311884FF0A00383F31188BFF36F8F66
S214084130BFF34F8FA26BE36B9A421ED3022E1CD09E
S214084140002088F31188BDE8F88340F2A2311E48A3
S2140841501E4B9847DFE7236C002BDDD040F2A331D7
S21408416019481A4B9847D7E7E36B012BD6D04FF47C
S21408417069711548154B9847D0E794F845506DB2C5
S214084180324639462046124B9847B5F1FF3F05D0D0
S21408419001356DB284F845500120D2E7636A0BB941
S2140841A00120CEE704F124000A4B984730B1B9F154
S2140841B0000F05D00120C9F80000C2E70120C0E7BB
S2140841C00120BEE7C13B08009C6108006158080052
S2140841D0C53C0800B14E080070B50E46044618B334
S2140841E0236C3BBB23685BB3234B9847EFF31185DF
S2140841F04FF0A00383F31188BFF36F8FBFF34F8F81
S214084200A26BE36B9A4231D294F845305BB2013226
S214084210A263B3F1FF3F1CD001335BB284F845308C
S214084220012085F3118870BD40F23F411348144BB6
S2140842309847D5E740F243411048114B9847D1E7D5
S2140842406368002BD0D04FF489610C480C4B984714
S214084250CAE7636A0BB90120E3E704F12400094BB7
S214084260984728B136B101203060DAE70020D8E751
S2140842700120D6E70120D4E7C13B08009C6108006E
S21408428061580800B14E08002DE9F04784B088460A
S2140842900192044698B1B8F1000F16D04D4B9847D6
S2140842A030B9019B23B14FF49D614B484B4B98475F
S2140842B04FF0000A4A4D4B4EDFF8389144E040F282
S2140842C0DF414548454B9847E5E7236C002BE5D08A
S2140842D040F2E3414048414B9847DFE741462046D5
S2140842E0414B98477B1EA36323692BB93F4B9847DE
S2140842F0012004B0BDE8F08704F110003C4B984755
S2140843000028F3D04FF080523A4B1A60BFF34F8F15
S214084310BFF36F8FEAE7354B98470020E9E702A816
S214084320B0471BE02046344B9847344B984709E083
S2140843302046314B9847314B98472046304B984794
S214084340002844D14FF0010AA847A76B002FC5D113
S214084350019B002BDFD0BAF1000FE0D0234B984723
S214084360284B9847A84794F844305BB2B3F1FF3F10
S21408437004BF002384F8443094F845305BB2B3F1A8
S214084380FF3F04BF002384F84530184B984701A91F
S21408439002A81D4B98470028CAD12046184B9847B4
S2140843A00028BFD0019904F12400184B98472046EE
S2140843B0114B9847114B98470028C3D14FF08053AC
S2140843C0C9F80030BFF34F8FBFF36F8FBAE70020EE
S2140843D08FE700BF315008009C610800615808004C
S2140843E0C5390800854F0800453D08000D3A080005
S2140843F0B14E080004ED00E06D3D0800C54B08000E
S214084400A53C0800594A08009D4F0800294E080098
S2140844102DE9F04385B00191044698B1236CBBB9E9
S214084420614B984730B9019B23B140F27A515F48F7
S2140844305F4B98474FF000094E465E4D5E4FDFF8DB
S214084440888156E040F271515848594B9847E5E73D
S21408445040F275515548564B9847E1E7013BA36330
S21408446023684BB123695BB9544B98474FF0010951
S214084470484605B0BDE8F083514B98476060F1E7C1
S21408448004F110004F4B98470028EDD04FF08052AB
S2140844904D4B1A60BFF34F8FBFF36F8FE4E7B9F148
S2140844A0000F04D1454B98474FF00009E0E740F26B
S2140844B0C2513E483E4B9847F4E702A8B84721E069
S2140844C0A8476068414B984781463C4B984740E070
S2140844D020463F4B98473F4B984709E020463C4BC1
S2140844E098473C4B984720463B4B9847002845D171
S2140844F00126A847A36B002BB0D1019B002BCED07A
S214084500002EDAD02D4B9847344B9847A84794F896
S21408451044305BB2B3F1FF3F04BF002384F8443055
S21408452094F845305BB2B3F1FF3F04BF002384F82C
S2140845304530224B984701A902A8294B98470028DE
S214084540CCD12046244B98470028C1D02368002B9E
S214084550B6D0019904F12400224B984720461C4BFC
S21408456098471C4B98470028C2D14FF08053C8F88C
S2140845700030BFF34F8FBFF36F8FB9E7B9F1000F65
S2140845803FF476AF0B4B9847636A5BB1236B1968A9
S214084590C1F105016068144B9847084B98474FF0DF
S2140845A0000965E70021F5E7315008009C6108001E
S2140845B061580800C5390800854F08000D3A0800FC
S2140845C095520800B14E080004ED00E0515008006E
S2140845D06D3D0800C54B0800A53C0800594A080070
S2140845E09D4F0800294E0800C951080010B40A4B10
S2140845F01B684BB10123084C54F833202AB1013309
S214084600082BF9D110BC70470023034A42F8331030
S21408461002EBC3035860F5E77C53072070B50446E1
S2140846200D461646114B984794F844305BB2B3F1E2
S214084630FF3F04BF002384F8443094F845305BB24B
S214084640B3F1FF3F04BF002384F84530084B984772
S214084650A36B1BB12046074B984770BD32462946C8
S21408466004F12400044B9847F4E700BFC539080056
S2140846700D3A08006D3D0800694E0800084B1B6897
S2140846801B683BB1064B1B68DB68DB685A68054B42
S2140846901A6070474FF0FF32024B1A60704700BF2F
S2140846A014520720C852072080B5164DDFF86C80D4
S2140846B0154FDFF86C902B68BBB1144EC047FB68EB
S2140846C0DC68201DB047124A1368013B13602B684C
S2140846D0013B2B600F4B9847206BDFF848A0D0476C
S2140846E02046D0472B68002BE8D10B4B1B68012BC4
S2140846F0E1D94FF08053C9F80030BFF34F8FBFF3AE
S2140847006F8FD8E788520720FC520720ED3808003C
S214084710845207200D3A08001C520720C5390800A5
S21408472004ED00E08D3C080070B504460E461D4BAF
S2140847301D681D4B186804301C4B984748B91A4B1F
S2140847401A681B490B68D06A0122824023EA0203D2
S2140847500B60B4F1FF3F13D02C44134B1B685C600E
S214084760A54216D8134B18680F4B19680431124B1C
S2140847709847124B1B689C423CBF104B1C6070BD90
S214084780002EE9D0084B196804310D480D4B9847A0
S21408479070BD0D4B1868044B19680431064B9847D2
S2140847A070BD00BF1053072010520720ED380800D0
S2140847B09852072014520720B9380800C852072014
S2140847C0E8520720A1380800185207202DE9F04FB4
S2140847D083B083460D460193DDF834A09600304634
S2140847E0604B9847002800F08E8007465C205D4B9B
S2140847F098470446002800F0838007633246A521C0
S2140848003846594B9847043E236B1E4426F0070645
S2140848102B7884F834302B7863B12B4604F13402B5
S21408482005F10901587802F8010F13F8010F08B1CD
S2140848308B42F7D1002784F83D700C9D042D28BFC5
S2140848400425E562A564E76404F104084046DFF839
S2140848506C91C84704F11800C8472461C5F10505DE
S214084860A56164622765676584F85870019A594699
S21408487030463E4B98472060BAF1000F01D0CAF880
S21408488000403B4B98473B4A1368013313603A4B4A
S2140848901B68002B3AD0394B1B683BB9364B1B6854
S2140848A0DA6AE36A9A429CBF334B1C60344A136840
S2140848B0013313602364E06A324A11680123834097
S2140848C00B43136000EB800041462F4B03EB800040
S2140848D02E4B98472E4B9847284B1B68002B3BD0EF
S2140848E0254B1B68DA6AE36A9A4239D24FF080523F
S2140848F0284B1A60BFF34F8FBFF36F8F01202CE051
S2140849003846254B98474FF0FF3026E01A4B1C6078
S2140849101368012BCAD11C4E3046204DA84706F115
S2140849201400A84706F12800A84706F13C00A84747
S21408493006F15000A8471A4F3846A847194E304681
S214084940A8471948A8471948A8471948A847194B17
S2140849501F60194B1E60A9E7012003B0BDE8F08F61
S2140849600120FAE71D3C08009D5B0800793908001D
S214084970C53908008452072010520720E452072041
S21408498094520720985207201C520720A138080086
S2140849900D3A080004ED00E08D3C08008538080054
S2140849A09C520720B0520720D0520720FC520720FE
S2140849B0E852072014520720185207209B38080090
S2140849C010B582B0184B019300230093A022174914
S2140849D01748184CA047012804D0B0F1FF3F1CD058
S2140849E002B010BD144B98470128F6D14FF0A0032B
S2140849F083F31188BFF36F8FBFF34F8F4FF0FF32EB
S214084A000E4B1A6001220E4B1A6000220D4B1A60DC
S214084A100D4B98470D4B9847E2E740F2DC710C487F
S214084A200C4B9847DCE700BFC45207201C620800FE
S214084A30A9460800CD4708006D530800C85207204D
S214084A40E452072010530720F1590800DD3A080001
S214084A50DC61080061580800024A136801331360D5
S214084A60704700BF90520720014B1868704700BF78
S214084A701053072008B5024B9847024B186808BD24
S214084A80C13B0800105307202DE9F0473D4B1B6833
S214084A90002B70D13C4B1A6802F10108C3F800805D
S214084AA0B8F1000F0FD1394B1B681B681BBB374A80
S214084AB01168374B186810601960364A1368013356
S214084AC01360354B9847354B1B68984519D2002517
S214084AD0334B1B68DB6A03EB83039B00314AD358CE
S214084AE0022B28BF0125304B1B68002B0CBF28461D
S214084AF00120BDE8F08740F633212C482C4B984718
S214084B00D5E70025214FDFF8B4A0DFF8B49021E000
S214084B104FF0FF32214B1A60DAE7204A1360D7E7D6
S214084B2004F11800D047E06AD9F800200123834032
S214084B301343C9F8003000EB80003146194B03EBED
S214084B4080001C4B9847164B1B68E26ADB6A9A4241
S214084B5028BF01253B681B68002BD9D03B68DB685B
S214084B60DC6863689845D8D3261D3046D047A36AC4
S214084B70002BD5D1D7E7104A1368013313600025F8
S214084B80B1E700BF905207201053072014520720A1
S214084B9018520720CC5207207D460800C852072026
S214084BA0105207201C52072014530720DC61080007
S214084BB061580800A13808008C520720ED38080014
S214084BC0985207202DE9F041344B1B68002B33D050
S214084BD0334B9847314B1A68013A1A601B68002B0A
S214084BE053D1304B1B68002B2CD000242E4EDFF8F8
S214084BF0EC802E4F33683BB3F368DC6804F118008A
S214084C00C047251D2846C047E06A3A680123834006
S214084C1013433B6000EB80002946254B03EB8000DE
S214084C20244B9847244B1B68E26ADB6A9A42E1D316
S214084C300122224B1A60DDE74FF404612048214B1D
S214084C409847C5E7002421E00CB11F4B98471F4B37
S214084C501C686CB11E4D194F012601E0013C04D0BA
S214084C60A8470028FAD03E60F8E70022174B1A60DB
S214084C70124B1B687BB14FF08052164B1A60BFF37D
S214084C804F8FBFF36F8F012400E00024124B984724
S214084C902046BDE8F0810024F8E700BF90520720C0
S214084CA0C539080084520720D0520720985207209A
S214084CB01C520720A138080010520720145307205A
S214084CC0DC610800615808007D4608008C52072001
S214084CD0894A080004ED00E00D3A0800ED3808009F
S214084CE010B560B104460D4B1B688BB90C4B984742
S214084CF0002120460B4B98470B4B984738B94FF086
S214084D0080520A4B1A60BFF34F8FBFF36F8F10BDE8
S214084D1040F20F510648074B9847E7E7905207209E
S214084D20594A080029470800C54B080004ED00E06A
S214084D30DC61080061580800314B1B681BB1012272
S214084D40304B1A60704710B500222E4B1A602E4B57
S214084D5098472E4B1A68904205D92D4B19680B6D4B
S214084D609B1A03440B65294B1860294B1B681B6B61
S214084D701A68B2F1A53F29D0254B1868196834314E
S214084D80244B9847244B1C68B4FA84F4E4B2C4F164
S214084D901F0404EB84039B00204AD3581BB31F4B05
S214084DA0A200111903EB8101486840684860224454
S214084DB00B46083398421CD004EB8404174B03EBCD
S214084DC084046368DA68124B1A6010BD5A68B2F138
S214084DD0A53FD1D19A68B2F1A53FCDD1DB68B3F132
S214084DE0A53FC9D1CEE74FF435610D480D4B98471E
S214084DF0D5E741681346094A02EB83035960DBE7A7
S214084E009052072014530720015A080080520720A2
S214084E10105207204F580800985207201C520720A7
S214084E20DC6108006158080038B50C46054650B1E4
S214084E30084B196818312846074B98470121204621
S214084E40064B984738BD4FF436610548054B9847DA
S214084E50EEE700BF10520720B938080029470800B7
S214084E60DC6108006158080070B50D461446064611
S214084E7070B10A4B196818313046094B9847002C10
S214084E8021460CBF28464FF0FF30064B984770BDAA
S214084E9040F68B310448054B9847EAE7105207203E
S214084EA0A138080029470800DC6108006158080096
S214084EB038B5C368DC682CB304F118052846174BC8
S214084EC09847174B1B681BBB251D2846134B98474E
S214084ED0E06A144A1168012383400B43136000EB11
S214084EE080002946104B03EB8000104B9847104B68
S214084EF01B68E26ADB6A9A4283BF01200D4B186082
S214084F00002038BD40F6BB310B480C4B9847D3E71A
S214084F1029460B48054B9847E9E700BFED380800D7
S214084F2090520720985207201C520720A1380800E4
S214084F301052072014530720DC6108006158080047
S214084F40D052072010B5044650B1084B9847084B76
S214084F501B682360074B1B686360074B984710BDA8
S214084F604FF441610548064B9847EEE7C5390800F7
S214084F70CC520720105307200D3A0800DC610800C1
S214084F8061580800034B1B680360034B1B684360AB
S214084F90704700BFCC5207201053072070B50C4648
S214084FA00546D0B1FCB1184B9847184B1B682268C9
S214084FB0B2F1FF3F24D06968154800682E6886421B
S214084FC001D08B421ED25B1A934212D30023236071
S214084FD00124104B9847204670BD40F626410E48DF
S214084FE00E4B9847DEE740F627410B480B4B984791
S214084FF0D9E7D31A23602846094B98470024E8E7E0
S2140850000024E6E70124E4E7C53908001053072022
S214085010CC5207200D3A0800DC61080061580800E9
S214085020854F08000122014B1A6070471453072069
S214085030054B1B6833B1054B1B68002B0CBF0220C1
S2140850400020704701207047E4520720905207203E
S214085050002850D038B50446C26A28490968C96A83
S2140850608A423FD28169002905DB24490968C96A52
S214085070C1F10501816102EB8202214901EB82023E
S2140850806169914205D01D4A1268D26AE26201201F
S21408509038BD251D28461B4B984770B9E26A02EBB7
S2140850A082039B001649CB583BB917480368012171
S2140850B001FA02F223EA02020260104B1B68D86A61
S2140850C0E062114A1168012404FA00F30B431360E6
S2140850D000EB800029460A4B03EB80000B4B9847F1
S2140850E0204638BD054A1268806CD36A98422CBFA1
S2140850F00020012038BD0020704700BF105207204E
S2140851001C520720ED38080098520720A1380800DE
S214085110002846D038B50446244B1B68984204D06D
S21408512040F63B712248234B9847E36C4BB1E36C3F
S214085130013BE364E16AA26C914234D03BB10020A3
S21408514038BD40F63C711A481A4B9847EFE7251DBC
S2140851502846194B984770B9E26A02EB82039B000F
S2140851601649CB583BB916480368012101FA02F2E2
S21408517023EA02020260A06CE062C0F10503A361A4
S2140851800F4A1168012404FA00F30B43136000EB7E
S21408519080002946094B03EB80000A4B98472046B7
S2140851A038BD00207047002038BD00BF10520720C9
S2140851B0DC61080061580800ED3808001C5207201A
S2140851C098520720A1380800002853D038B504465E
S2140851D00D46C36C53B1A16C8D4238BF0D46E36AC9
S2140851E0AB4202D0E36C012B06D038BD40F68A717C
S2140851F02148224B9847EEE7214B1B689C4233D048
S214085200E36AE562A269002AA4BFC5F10505A5619F
S21408521003EB83031B4A02EB830362699A42E4D1D9
S214085220251D2846184B984770B9E26A02EB820398
S2140852309B001449CB583BB914480368012101FA6E
S21408524002F223EA02020260E06A104A11680123A9
S21408525083400B43136000EB80002946094B03EBA1
S21408526080000B4B9847C0E740F6A5710248034BF1
S2140852709847C5E7704700BFDC610800615808001A
S214085280105207201C520720ED38080098520720B5
S214085290A1380800054B1B6823B1044B1A68D36C69
S2140852A00133D364014B1868704700BF10520720BB
S2140852B008B54160006191420CD8D21A83699A42B7
S2140852C001D3012008BD011D094B1868094B9847F2
S2140852D0002008BD9A4201D2994206D2011D064B0B
S2140852E01868044B9847002008BD012008BD00BF79
S2140852F01C530720B93808001853072070B5104B00
S2140853009847104B1B6813B10F4B984770BD0F4D4D
S21408531028460F4EB0470F4C2046B0470E4B1D6030
S2140853200E4B1C6000220C2105200D4B9847054BA0
S21408533018600028E8D00B490B4B9847E4E700BFF5
S214085340C53908004C5307200D3A0800205307209B
S2140853508538080034530720185307201C530720A5
S214085360993E080024620800ED45080010B582B092
S2140853700D4B98470D4B1B687BB10D4B01930423CF
S214085380009300234FF4A0720A490B480B4CA04721
S214085390034610B1184602B010BD4FF4887108488D
S2140853A0084B98470023F5E7FD5208004C530720A2
S2140853B0505307202C620800F1540800CD47080017
S2140853C03462080061580800F0B585B00C461646E9
S2140853D01F460546B0B1124B1868F8B101940296FC
S2140853E00395052C14DC0F4B984702284FF0000352
S2140853F00CBF0A9A1A4601A9094800680A4CA04731
S21408540005B0F0BD40F283110848094B9847E2E71B
S21408541000233A4601A9074CA047F1E70020EFE72A
S2140854204C53072031500800313F0800346208000A
S21408543061580800094108002DE9F04782B0804607
S214085440224B98470746224B1B68984216D30023E0
S214085450C8F800301E4B1F60384602B0BDE8F0871B
S214085460002100910B46524620461A4CA04738B9F0
S21408547040F26F311848194B984701E0184D194EFD
S2140854802B681A68C2B1DB68D3F800A0DC6804F1A0
S21408549004094846B047636A20469847E369012BE3
S2140854A0EED1A36953449A45DAD26360246149462B
S2140854B028680D4B9847E3E70C4A106808490860C7
S2140854C013600123C8F80030C4E700BF694A080023
S2140854D048530720C953080034620800615808007A
S2140854E018530720ED380800B93808001C53072061
S2140854F02DE9F04F87B0634FDFF8B881624DDFF8CB
S214085500B8A1DFF8B8913B681A6872B1DB681E6804
S2140855105E4B984703A85E4B98470446039B002BB0
S21408552078D1B0424CD200220FE0584B984703A8D7
S214085530574B98470446039B002B6BD1554B1B686B
S2140855401A68B2FA82F252090026311B2868524BB2
S2140855509847C04738B94FF08053CAF80030BFF3B1
S2140855604F8FBFF36F8F4D4C002203A92868A047C2
S2140855700028C8D0039B002BF6DB059E73690BB189
S214085580301DC84702A8424B98478346039B092B01
S214085590EAD801A252F823F019560800195608004E
S2140855A019560800695508005B5608007D5608001D
S2140855B01956080019560800695508005B56080071
S2140855C0C0473B68DB68D3F80CB00BF10400C8474B
S2140855D0DBF81C30012B04D0DBF8243058469847FB
S2140855E0C1E7DBF8181033462246314458462C4C9F
S2140855F0A0470028F0D0002100910B4632465846B6
S214085600284CA0470028E7D140F2E5112648274B4A
S2140856109847E1E7C047A6E70499B0690B465A469B
S214085620014430461E4CA04700289CD0736A30467A
S2140856309847F369012B96D1B269002100910B4671
S214085640049802443046174CA04700288BD140F2F5
S214085650FE211548154B984785E7049BB3613BB177
S214085660B1695B465A46594430460D4CA0477AE71E
S21408567040F215310C480D4B9847F1E730460C4B75
S214085680984770E7185307204C530720594A0800D4
S214085690395408001C5307201D4608008942080094
S2140856A0B1520800C953080034620800615808005F
S2140856B08D3C0800C54B080004ED00E0ED380800F6
S2140856C008B56420014B984708BD00BFE14C0800A8
S2140856D0F8B5074E4FF000573763064C4FF4807501
S2140856E025636420044B984777636563F8BD00BF5D
S2140856F000120E4000140E40E14C0800F8B5074EA4
S2140857004FF400173763064C4FF000652563642096
S214085710044B984777636563F8BD00BF00120E40D8
S21408572000100E40E14C080008B56420014B98476D
S21408573008BD00BFE14C0800F8B5074E4FF000570B
S2140857403763064C4FF0006525636420044B984782
S21408575077636563F8BD00BF00120E4000100E4068
S214085760E14C0800F8B5074E4FF400173763064CAF
S2140857704FF4807525636420044B98477763656308
S214085780F8BD00BF00120E4000140E40E14C0800A1
S21408579008B5054B1B78052B00D908BD034A02EB54
S2140857A0C3035B689847F8E754530720900207201E
S2140857B070B5034E0A25034CB0472846A047FBE7BA
S2140857C091570800E14C080000B583B0114B984784
S2140857D0114AD36823F4E0631B041B0C43F0BF6331
S2140857E043F40033D3600D4B98470D4B984700227F
S2140857F0A0210C480C4B98470023019301230093E3
S2140858004FF4A07209490A480A4CA0470A4B984721
S214085810FEE700BF6101080000ED00E0451C080037
S214085820455908000080094075370800746208006A
S214085830B1570800CD470800C14908004FF0A0033B
S21408584083F31188BFF36F8FBFF34F8FFEE74FF0D8
S214085850A00383F31188BFF36F8FBFF34F8FFEE764
S21408586000B583B0002301930091009B044B984732
S214085870019B002BFCD0034B984703B05DF804FB54
S214085880C53908000D3A0800022852D810B5044653
S21408589039B3284B9847284B53F824308BB9274BF5
S2140858A053F82420530903F5001303F207735B0229
S2140858B002F01F02012101FA02F25A63204B9847B0
